{
  "abi": [
    {
      "inputs": [
        {
          "internalType": "string",
          "name": "_title",
          "type": "string"
        },
        {
          "internalType": "string",
          "name": "_cid",
          "type": "string"
        },
        {
          "internalType": "string",
          "name": "_url",
          "type": "string"
        }
      ],
      "name": "createPost",
      "outputs": [],
      "stateMutability": "nonpayable",
      "type": "function"
    },
    {
      "inputs": [],
      "name": "getCurrentPostId",
      "outputs": [
        {
          "internalType": "uint256",
          "name": "",
          "type": "uint256"
        }
      ],
      "stateMutability": "view",
      "type": "function"
    },
    {
      "inputs": [
        {
          "internalType": "uint256",
          "name": "_postId",
          "type": "uint256"
        }
      ],
      "name": "getPost",
      "outputs": [
        {
          "components": [
            {
              "internalType": "string",
              "name": "title",
              "type": "string"
            },
            {
              "internalType": "string",
              "name": "cid",
              "type": "string"
            },
            {
              "internalType": "string",
              "name": "url",
              "type": "string"
            },
            {
              "internalType": "address",
              "name": "author",
              "type": "address"
            }
          ],
          "internalType": "struct Blog.Post",
          "name": "",
          "type": "tuple"
        }
      ],
      "stateMutability": "view",
      "type": "function"
    },
    {
      "inputs": [
        {
          "internalType": "uint256",
          "name": "",
          "type": "uint256"
        }
      ],
      "name": "posts",
      "outputs": [
        {
          "internalType": "string",
          "name": "title",
          "type": "string"
        },
        {
          "internalType": "string",
          "name": "cid",
          "type": "string"
        },
        {
          "internalType": "string",
          "name": "url",
          "type": "string"
        },
        {
          "internalType": "address",
          "name": "author",
          "type": "address"
        }
      ],
      "stateMutability": "view",
      "type": "function"
    }
  ],
  "bytecode": {
    "object": "0x6080604052600060015534801561001557600080fd5b50610957806100256000396000f3fe608060405234801561001057600080fd5b506004361061004c5760003560e01c80630b1e7f831461005157806340731c241461007d57806340b8c9cf1461009d578063e8a4a1eb146100ae575b600080fd5b61006461005f36600461055a565b6100c3565b60405161007494939291906105b9565b60405180910390f35b61009061008b36600461055a565b61028c565b604051610074919061060c565b600154604051908152602001610074565b6100c16100bc366004610729565b6104a9565b005b6000602081905290815260409020805481906100de906107b1565b80601f016020809104026020016040519081016040528092919081815260200182805461010a906107b1565b80156101575780601f1061012c57610100808354040283529160200191610157565b820191906000526020600020905b81548152906001019060200180831161013a57829003601f168201915b50505050509080600101805461016c906107b1565b80601f0160208091040260200160405190810160405280929190818152602001828054610198906107b1565b80156101e55780601f106101ba576101008083540402835291602001916101e5565b820191906000526020600020905b8154815290600101906020018083116101c857829003601f168201915b5050505050908060020180546101fa906107b1565b80601f0160208091040260200160405190810160405280929190818152602001828054610226906107b1565b80156102735780601f1061024857610100808354040283529160200191610273565b820191906000526020600020905b81548152906001019060200180831161025657829003601f168201915b505050600390930154919250506001600160a01b031684565b6102c0604051806080016040528060608152602001606081526020016060815260200160006001600160a01b031681525090565b600082815260208190526040908190208151608081019092528054829082906102e8906107b1565b80601f0160208091040260200160405190810160405280929190818152602001828054610314906107b1565b80156103615780601f1061033657610100808354040283529160200191610361565b820191906000526020600020905b81548152906001019060200180831161034457829003601f168201915b5050505050815260200160018201805461037a906107b1565b80601f01602080910402602001604051908101604052809291908181526020018280546103a6906107b1565b80156103f35780601f106103c8576101008083540402835291602001916103f3565b820191906000526020600020905b8154815290600101906020018083116103d657829003601f168201915b5050505050815260200160028201805461040c906107b1565b80601f0160208091040260200160405190810160405280929190818152602001828054610438906107b1565b80156104855780601f1061045a57610100808354040283529160200191610485565b820191906000526020600020905b81548152906001019060200180831161046857829003601f168201915b5050509183525050600391909101546001600160a01b031660209091015292915050565b60408051608081018252848152602080820185905281830184905233606083015260015460009081529081905291909120815181906104e8908261083a565b50602082015160018201906104fd908261083a565b5060408201516002820190610512908261083a565b5060609190910151600390910180546001600160a01b0319166001600160a01b039092169190911790556001805481906000906105509083906108fa565b9091555050505050565b60006020828403121561056c57600080fd5b5035919050565b6000815180845260005b818110156105995760208185018101518683018201520161057d565b506000602082860101526020601f19601f83011685010191505092915050565b6080815260006105cc6080830187610573565b82810360208401526105de8187610573565b905082810360408401526105f28186610573565b91505060018060a01b038316606083015295945050505050565b60208152600082516080602084015261062860a0840182610573565b90506020840151601f19808584030160408601526106468383610573565b92506040860151915080858403016060860152506106648282610573565b606095909501516001600160a01b031660809490940193909352509192915050565b634e487b7160e01b600052604160045260246000fd5b600082601f8301126106ad57600080fd5b813567ffffffffffffffff808211156106c8576106c8610686565b604051601f8301601f19908116603f011681019082821181831017156106f0576106f0610686565b8160405283815286602085880101111561070957600080fd5b836020870160208301376000602085830101528094505050505092915050565b60008060006060848603121561073e57600080fd5b833567ffffffffffffffff8082111561075657600080fd5b6107628783880161069c565b9450602086013591508082111561077857600080fd5b6107848783880161069c565b9350604086013591508082111561079a57600080fd5b506107a78682870161069c565b9150509250925092565b600181811c908216806107c557607f821691505b6020821081036107e557634e487b7160e01b600052602260045260246000fd5b50919050565b601f82111561083557600081815260208120601f850160051c810160208610156108125750805b601f850160051c820191505b818110156108315782815560010161081e565b5050505b505050565b815167ffffffffffffffff81111561085457610854610686565b6108688161086284546107b1565b846107eb565b602080601f83116001811461089d57600084156108855750858301515b600019600386901b1c1916600185901b178555610831565b600085815260208120601f198616915b828110156108cc578886015182559484019460019091019084016108ad565b50858210156108ea5787850151600019600388901b60f8161c191681555b5050505050600190811b01905550565b8082018082111561091b57634e487b7160e01b600052601160045260246000fd5b9291505056fea264697066735822122038ab11ed0949f411f2f4c1e6837c83ce2df6d09e8f082dd3813311976edf948064736f6c63430008110033",
    "linkReferences": {}
  },
  "methodIdentifiers": {
    "createPost(string,string,string)": "e8a4a1eb",
    "getCurrentPostId()": "40b8c9cf",
    "getPost(uint256)": "40731c24",
    "posts(uint256)": "0b1e7f83"
  },
  "id": 19
}