{
  "abi": [
    {
      "inputs": [
        {
          "internalType": "string",
          "name": "_title",
          "type": "string"
        },
        {
          "internalType": "string",
          "name": "_cid",
          "type": "string"
        }
      ],
      "name": "createPost",
      "outputs": [],
      "stateMutability": "nonpayable",
      "type": "function"
    },
    {
      "inputs": [],
      "name": "getCurrentPostId",
      "outputs": [
        {
          "internalType": "uint256",
          "name": "",
          "type": "uint256"
        }
      ],
      "stateMutability": "view",
      "type": "function"
    },
    {
      "inputs": [
        {
          "internalType": "uint256",
          "name": "_postId",
          "type": "uint256"
        }
      ],
      "name": "getPost",
      "outputs": [
        {
          "components": [
            {
              "internalType": "string",
              "name": "title",
              "type": "string"
            },
            {
              "internalType": "string",
              "name": "cid",
              "type": "string"
            },
            {
              "internalType": "address",
              "name": "author",
              "type": "address"
            }
          ],
          "internalType": "struct Blog.Post",
          "name": "",
          "type": "tuple"
        }
      ],
      "stateMutability": "view",
      "type": "function"
    },
    {
      "inputs": [
        {
          "internalType": "uint256",
          "name": "",
          "type": "uint256"
        }
      ],
      "name": "posts",
      "outputs": [
        {
          "internalType": "string",
          "name": "title",
          "type": "string"
        },
        {
          "internalType": "string",
          "name": "cid",
          "type": "string"
        },
        {
          "internalType": "address",
          "name": "author",
          "type": "address"
        }
      ],
      "stateMutability": "view",
      "type": "function"
    }
  ],
  "bytecode": {
    "object": "0x6080604052600060015534801561001557600080fd5b506107a9806100256000396000f3fe608060405234801561001057600080fd5b506004361061004c5760003560e01c80630b1e7f8314610051578063392338f51461007c57806340731c241461009157806340b8c9cf146100b1575b600080fd5b61006461005f366004610404565b6100c2565b60405161007393929190610463565b60405180910390f35b61008f61008a366004610544565b6101fd565b005b6100a461009f366004610404565b610291565b60405161007391906105a8565b600154604051908152602001610073565b6000602081905290815260409020805481906100dd90610603565b80601f016020809104026020016040519081016040528092919081815260200182805461010990610603565b80156101565780601f1061012b57610100808354040283529160200191610156565b820191906000526020600020905b81548152906001019060200180831161013957829003601f168201915b50505050509080600101805461016b90610603565b80601f016020809104026020016040519081016040528092919081815260200182805461019790610603565b80156101e45780601f106101b9576101008083540402835291602001916101e4565b820191906000526020600020905b8154815290600101906020018083116101c757829003601f168201915b505050600290930154919250506001600160a01b031683565b60408051606081018252838152602080820184905233828401526001546000908152908190529190912081518190610235908261068c565b506020820151600182019061024a908261068c565b5060409190910151600290910180546001600160a01b0319166001600160a01b0390921691909117905560018054819060009061028890839061074c565b90915550505050565b60408051606080820183528082526020820152600091810191909152600082815260208190526040908190208151606081019092528054829082906102d590610603565b80601f016020809104026020016040519081016040528092919081815260200182805461030190610603565b801561034e5780601f106103235761010080835404028352916020019161034e565b820191906000526020600020905b81548152906001019060200180831161033157829003601f168201915b5050505050815260200160018201805461036790610603565b80601f016020809104026020016040519081016040528092919081815260200182805461039390610603565b80156103e05780601f106103b5576101008083540402835291602001916103e0565b820191906000526020600020905b8154815290600101906020018083116103c357829003601f168201915b5050509183525050600291909101546001600160a01b031660209091015292915050565b60006020828403121561041657600080fd5b5035919050565b6000815180845260005b8181101561044357602081850181015186830182015201610427565b506000602082860101526020601f19601f83011685010191505092915050565b606081526000610476606083018661041d565b8281036020840152610488818661041d565b91505060018060a01b0383166040830152949350505050565b634e487b7160e01b600052604160045260246000fd5b600082601f8301126104c857600080fd5b813567ffffffffffffffff808211156104e3576104e36104a1565b604051601f8301601f19908116603f0116810190828211818310171561050b5761050b6104a1565b8160405283815286602085880101111561052457600080fd5b836020870160208301376000602085830101528094505050505092915050565b6000806040838503121561055757600080fd5b823567ffffffffffffffff8082111561056f57600080fd5b61057b868387016104b7565b9350602085013591508082111561059157600080fd5b5061059e858286016104b7565b9150509250929050565b6020815260008251606060208401526105c4608084018261041d565b90506020840151601f198483030160408501526105e1828261041d565b604095909501516001600160a01b031660609490940193909352509192915050565b600181811c9082168061061757607f821691505b60208210810361063757634e487b7160e01b600052602260045260246000fd5b50919050565b601f82111561068757600081815260208120601f850160051c810160208610156106645750805b601f850160051c820191505b8181101561068357828155600101610670565b5050505b505050565b815167ffffffffffffffff8111156106a6576106a66104a1565b6106ba816106b48454610603565b8461063d565b602080601f8311600181146106ef57600084156106d75750858301515b600019600386901b1c1916600185901b178555610683565b600085815260208120601f198616915b8281101561071e578886015182559484019460019091019084016106ff565b508582101561073c5787850151600019600388901b60f8161c191681555b5050505050600190811b01905550565b8082018082111561076d57634e487b7160e01b600052601160045260246000fd5b9291505056fea2646970667358221220176a03c74e237c40c281583915ad9b2c47eeee1d68f8891c57e0ec0c3ad0140a64736f6c63430008110033",
    "linkReferences": {}
  },
  "methodIdentifiers": {
    "createPost(string,string)": "392338f5",
    "getCurrentPostId()": "40b8c9cf",
    "getPost(uint256)": "40731c24",
    "posts(uint256)": "0b1e7f83"
  },
  "id": 19
}