{
  "abi": [
    {
      "inputs": [
        {
          "internalType": "string",
          "name": "_cid",
          "type": "string"
        }
      ],
      "name": "createPost",
      "outputs": [],
      "stateMutability": "nonpayable",
      "type": "function"
    },
    {
      "inputs": [],
      "name": "getCurrentPostId",
      "outputs": [
        {
          "internalType": "uint256",
          "name": "",
          "type": "uint256"
        }
      ],
      "stateMutability": "view",
      "type": "function"
    },
    {
      "inputs": [
        {
          "internalType": "uint256",
          "name": "_postId",
          "type": "uint256"
        }
      ],
      "name": "getPost",
      "outputs": [
        {
          "components": [
            {
              "internalType": "string",
              "name": "cid",
              "type": "string"
            },
            {
              "internalType": "address",
              "name": "author",
              "type": "address"
            }
          ],
          "internalType": "struct Blog.Post",
          "name": "",
          "type": "tuple"
        }
      ],
      "stateMutability": "view",
      "type": "function"
    },
    {
      "inputs": [
        {
          "internalType": "uint256",
          "name": "",
          "type": "uint256"
        }
      ],
      "name": "posts",
      "outputs": [
        {
          "internalType": "string",
          "name": "cid",
          "type": "string"
        },
        {
          "internalType": "address",
          "name": "author",
          "type": "address"
        }
      ],
      "stateMutability": "view",
      "type": "function"
    }
  ],
  "bytecode": {
    "object": "0x6080604052600060015534801561001557600080fd5b506105f2806100256000396000f3fe608060405234801561001057600080fd5b506004361061004c5760003560e01c80630b1e7f831461005157806340731c241461007b57806340b8c9cf1461009b578063c7303c61146100ac575b600080fd5b61006461005f3660046102bf565b6100c1565b60405161007292919061031e565b60405180910390f35b61008e6100893660046102bf565b61016e565b6040516100729190610348565b600154604051908152602001610072565b6100bf6100ba36600461039b565b610247565b005b6000602081905290815260409020805481906100dc9061044c565b80601f01602080910402602001604051908101604052809291908181526020018280546101089061044c565b80156101555780601f1061012a57610100808354040283529160200191610155565b820191906000526020600020905b81548152906001019060200180831161013857829003601f168201915b505050600190930154919250506001600160a01b031682565b6040805180820190915260608152600060208201526000828152602081905260409081902081518083019092528054829082906101aa9061044c565b80601f01602080910402602001604051908101604052809291908181526020018280546101d69061044c565b80156102235780601f106101f857610100808354040283529160200191610223565b820191906000526020600020905b81548152906001019060200180831161020657829003601f168201915b5050509183525050600191909101546001600160a01b031660209091015292915050565b60408051808201825282815233602080830191909152600154600090815290819052919091208151819061027b90826104d5565b5060209190910151600191820180546001600160a01b0319166001600160a01b03909216919091179055805481906000906102b7908390610595565b909155505050565b6000602082840312156102d157600080fd5b5035919050565b6000815180845260005b818110156102fe576020818501810151868301820152016102e2565b506000602082860101526020601f19601f83011685010191505092915050565b60408152600061033160408301856102d8565b905060018060a01b03831660208301529392505050565b60208152600082516040602084015261036460608401826102d8565b602094909401516001600160a01b0316604093909301929092525090919050565b634e487b7160e01b600052604160045260246000fd5b6000602082840312156103ad57600080fd5b813567ffffffffffffffff808211156103c557600080fd5b818401915084601f8301126103d957600080fd5b8135818111156103eb576103eb610385565b604051601f8201601f19908116603f0116810190838211818310171561041357610413610385565b8160405282815287602084870101111561042c57600080fd5b826020860160208301376000928101602001929092525095945050505050565b600181811c9082168061046057607f821691505b60208210810361048057634e487b7160e01b600052602260045260246000fd5b50919050565b601f8211156104d057600081815260208120601f850160051c810160208610156104ad5750805b601f850160051c820191505b818110156104cc578281556001016104b9565b5050505b505050565b815167ffffffffffffffff8111156104ef576104ef610385565b610503816104fd845461044c565b84610486565b602080601f83116001811461053857600084156105205750858301515b600019600386901b1c1916600185901b1785556104cc565b600085815260208120601f198616915b8281101561056757888601518255948401946001909101908401610548565b50858210156105855787850151600019600388901b60f8161c191681555b5050505050600190811b01905550565b808201808211156105b657634e487b7160e01b600052601160045260246000fd5b9291505056fea264697066735822122033c95d1985169555f7761bebfc6bfbdf91efecbb18ab6fe25d9e893fe2aa390864736f6c63430008110033",
    "linkReferences": {}
  },
  "methodIdentifiers": {
    "createPost(string)": "c7303c61",
    "getCurrentPostId()": "40b8c9cf",
    "getPost(uint256)": "40731c24",
    "posts(uint256)": "0b1e7f83"
  },
  "id": 19
}